:100000000C9446000C9465000C9465000C946500FB
:100010000C9465000C9465000C9465000C946500CC
:100020000C9465000C9465000C9465000C946500BC
:100030000C9465000C945E020C9465000C946500B1
:100040000C9465000C9465000C9465000C9465009C
:100050000C9465000C9465000C9465000C9465008C
:100060000C9465000C9465000C9465000C9465007C
:100070000C9465000C9465000C9465000C9465006C
:100080000C9465000C9465000C94650011241FBE4F
:10009000CFEFD0E4DEBFCDBF11E0A0E0B1E0EEE9EC
:1000A000F9E000E00BBF02C007900D92A034B10749
:1000B000D9F721E0A0E4B1E001C01D92A035B2075C
:1000C000E1F70E949E030C94CD040C940000CF93A2
:1000D000DF93CDB7DEB781E00E948E000000DF9194
:1000E000CF910895CF93DF93CDB7DEB784E690E04C
:1000F0000E94650188E30E948E0086E00E948E00C7
:100100008FE00E948E0081E00E948E008AE090E0E5
:100110000E9465010000DF91CF910895CF93DF9396
:100120001F92CDB7DEB789838BE290E02BE230E0FF
:10013000F90120812F7BFC01208388E290E0298156
:10014000FC0120838BE290E02BE230E0F90120817A
:100150002068FC01208300008BE290E02BE230E07D
:10016000F90120812F77FC01208382E090E00E943A
:10017000650100000F90DF91CF910895CF93DF9339
:100180001F92CDB7DEB789838BE290E02BE230E09F
:10019000F90120812064FC01208388E290E029811C
:1001A000FC0120838BE290E02BE230E0F90120811A
:1001B0002068FC01208300008BE290E02BE230E01D
:1001C000F90120812F77FC01208381E090E00E94DB
:1001D000650100000F90DF91CF910895CF93DF93D9
:1001E00000D000D0CDB7DEB78A837C836B830E94BA
:1001F00067008A81898311C0898191E0980F998372
:100200000E944E018B819C819C012F5F3F4F3C835C
:100210002B83FC0180810E94BE008B819C81FC01AC
:100220008081882349F700000F900F900F900F9066
:10023000DF91CF910895CF93DF9300D000D0CDB759
:10024000DEB78A837C836B838A818830E0F48A817D
:10025000882F90E00896880F880F880F0E948E00E4
:1002600019820EC08981882F90E02B813C81820FFA
:10027000931FFC0180810E94BE0089818F5F89836A
:100280008981883078F380E80E948E0000000F900A
:100290000F900F900F90DF91CF910895CF93DF9340
:1002A0001F92CDB7DEB789838981813128F4898196
:1002B00081580E948E0004C0898181550E948E0061
:1002C00000000F90DF91CF910895CF93DF9300D07E
:1002D00000D000D0CDB7DEB79E838D831A821982FD
:1002E00013C01C821B8206C000008B819C8101967A
:1002F0009C838B838B819C8187309340ACF3898175
:100300009A8101969A83898329813A818D819E8180
:100310002817390734F3000026960FB6F894DEBF8D
:100320000FBECDBFDF91CF910895CF93DF93CDB7AF
:10033000DEB72C970FB6F894DEBF0FBECDBF6D832E
:100340007E838F83988729873A874B875C878D8147
:100350009E81AF81B88529853A854B855C85BC0136
:10036000CD010E94AB04DC01CB0189839A83AB836E
:10037000BC8389819A81AB81BC81892B8A2B8B2B91
:1003800029F489859A85AB85BC8511C089859A85B4
:10039000AB85BC858D839E83AF83B88789819A8125
:1003A000AB81BC8189879A87AB87BC87D0CFBC01E2
:1003B000CD012C960FB6F894DEBF0FBECDBFDF91F6
:1003C000CF910895CF93DF9300D000D0CDB7DEB7A3
:1003D00069837A838B839C8389819A81AB81BC8179
:1003E0008093000190930101A0930201B093030157
:1003F0008091000190910101A0910201B09103014F
:100400008093410190934201A0934301B093440132
:1004100000000F900F900F900F90DF91CF910895F3
:10042000CF93DF93CDB7DEB781E890E02BE0FC01FE
:10043000208388E890E02DE730E0FC0131832083C1
:100440008FE690E022E0FC01208384E890E0FC014C
:10045000118210828091000190910101A09102010E
:10046000B09103018093410190934201A093430115
:10047000B09344018FE590E02FE530E0F901208151
:100480002068FC0120830000DF91CF910895CF9375
:10049000DF93CDB7DEB781E890E0FC011082000069
:1004A000DF91CF910895CF93DF93CDB7DEB781E091
:1004B000809340010000DF91CF9108951F920F9229
:1004C00000905F000F92112400905B000F922F9319
:1004D0003F934F935F936F937F938F939F93AF93CC
:1004E000BF93EF93FF93CF93DF93CDB7DEB78091A8
:1004F000410190914201A0914301B09144010197C3
:10050000A109B1098093410190934201A093430155
:10051000B09344018091410190914201A091430127
:10052000B0914401892B8A2B8B2B91F40E945302AA
:100530008091000190910101A0910201B09103010D
:100540008093410190934201A0934301B0934401F1
:100550000000DF91CF91FF91EF91BF91AF919F91FB
:100560008F917F916F915F914F913F912F910F905C
:1005700000925B000F9000925F000F901F90189503
:10058000CF93DF9300D01F92CDB7DEB789837B83F3
:100590006A8389818A3031F48A819B81BC018DE034
:1005A0000E94C00280EC90E0FC018081882F90E0E6
:1005B00080729927892BB1F386EC90E02981FC01A8
:1005C000208380E090E00F900F900F90DF91CF910B
:1005D0000895CF93DF9300D0CDB7DEB79A83898398
:1005E00089819A818130910591F0823091051CF4C6
:1005F000892B41F061C082309105B1F1039709F474
:1006000047C05AC081E090E09A83898355C080E258
:1006100090E0FC018081882F90E081709927892BE0
:1006200079F480E290E0FC018081882F90E0827074
:100630009927892B29F481E090E09A8389833CC033
:1006400080E290E0FC018081882F90E08170992702
:10065000892B29F482E090E09A8389832DC081E080
:1006600090E09A83898328C080E290E0FC01808139
:10067000882F90E081709927892B29F482E090E0FF
:100680009A83898319C083E090E09A83898314C098
:1006900080E290E0FC018081882F90E082709927B1
:1006A000892B29F481E090E09A83898304C083E058
:1006B00090E09A838983000089819A818130910535
:1006C00061F0823091051CF4892B81F130C08230B9
:1006D000910519F1039721F12AC00E94670080E873
:1006E0000E948E0062E271E081E10E94EE0062E110
:1006F00071E080E00E941B0180E090E00E94BE005B
:1007000080E70E948E006AE171E080E00E941B0198
:1007100080E090E00E94BE000AC00E94670007C00F
:1007200062E371E081E00E94EE0001C00000898177
:100730009A810F900F90DF91CF9108950F931F939F
:10074000CF93DF93CDB7DEB727970FB6F894DEBF10
:100750000FBECDBF81E290E0FC01108282E290E00A
:100760002FEFFC01208387E290E02FEFFC01208334
:1007700088E290E0FC0110828AE290E02FEFFC0119
:1007800020838BE290E0FC0110820E94720085E4DD
:1007900091E09F838E8381E090E09C838B831D8218
:1007A0008D818093450188E290E0A0E0B0E08093E5
:1007B000460190934701A0934801B093490180916D
:1007C000460190914701A0914801B0914901809361
:1007D0004A0190934B01A0934C01B0934D0189EED7
:1007E00092E090934F0180934E016AE070E080E0C8
:1007F00090E00E94E2010E9410021A8219829BC0BE
:1008000089819A81880F991F9E012F5F3F4F820F28
:10081000931F0596FC0180819181FC012581368121
:100820004781508589819A81880F991FBE016F5F2A
:100830007F4F860F971F0596FC0180819181FC01F7
:1008400081819281A381B481281739074A075B0708
:1008500009F045C089819A81880F991F9E012F5FF9
:100860003F4F820F931F0596FC0100811181898102
:100870009A81880F991F9E012F5F3F4F820F931F10
:100880000596FC0180819181FC0121853285898159
:100890009A81880F991FAE014F5F5F4F840F951F9C
:1008A0000596FC0180819181FC018081082E000C5D
:1008B000990BF9010995F801808389819A81880F44
:1008C000991F9E012F5F3F4F820F931F0596FC01DA
:1008D00080819181FC0115821682178210868981A0
:1008E0009A81880F991F9E012F5F3F4F820F931FA0
:1008F0000596FC012081318189819A81880F991F99
:10090000AE014F5F5F4F840F951F0596FC018081FC
:100910009181FC0185819681A781B0850196A11DF9
:10092000B11DF90185839683A783B08789819A8158
:1009300001969A83898329813A818B819C8128172A
:10094000390708F45DCF0000809140018823E1F36E
:100950001092400152CFA1E21A2EAA1BBB1BFD012F
:100960000DC0AA1FBB1FEE1FFF1FA217B307E4078E
:10097000F50720F0A21BB30BE40BF50B661F771FE6
:10098000881F991F1A9469F76095709580959095C6
:0E0990009B01AC01BD01CF010895F894FFCF8B
:10099E00010000000000000200000000C002000084
:1009AE0000000103070D0F02050A041F11111F1F7E
:1009BE001F1F53746172742047616D652028423188
:1009CE00290047616D65205374617274656400007F
:00000001FF
